{
  "_format": "hh-sol-artifact-1",
  "contractName": "CityHacks",
  "sourceName": "contracts/CityHacks.sol",
  "abi": [
    {
      "inputs": [],
      "stateMutability": "nonpayable",
      "type": "constructor"
    },
    {
      "anonymous": false,
      "inputs": [
        {
          "indexed": true,
          "internalType": "address",
          "name": "from",
          "type": "address"
        },
        {
          "indexed": false,
          "internalType": "string",
          "name": "description",
          "type": "string"
        },
        {
          "indexed": false,
          "internalType": "uint256",
          "name": "timestamp",
          "type": "uint256"
        }
      ],
      "name": "NewHack",
      "type": "event"
    },
    {
      "inputs": [],
      "name": "getAllHacks",
      "outputs": [
        {
          "components": [
            {
              "internalType": "address",
              "name": "hacker",
              "type": "address"
            },
            {
              "internalType": "string",
              "name": "description",
              "type": "string"
            },
            {
              "internalType": "uint256",
              "name": "cityId",
              "type": "uint256"
            },
            {
              "internalType": "uint256",
              "name": "categoryId",
              "type": "uint256"
            },
            {
              "internalType": "uint256",
              "name": "timestamp",
              "type": "uint256"
            }
          ],
          "internalType": "struct CityHacks.Hack[]",
          "name": "",
          "type": "tuple[]"
        }
      ],
      "stateMutability": "view",
      "type": "function"
    },
    {
      "inputs": [],
      "name": "getTotalHacks",
      "outputs": [
        {
          "internalType": "uint256",
          "name": "",
          "type": "uint256"
        }
      ],
      "stateMutability": "view",
      "type": "function"
    },
    {
      "inputs": [
        {
          "internalType": "string",
          "name": "_description",
          "type": "string"
        },
        {
          "internalType": "uint256",
          "name": "_cityId",
          "type": "uint256"
        },
        {
          "internalType": "uint256",
          "name": "_categoryId",
          "type": "uint256"
        }
      ],
      "name": "postHack",
      "outputs": [],
      "stateMutability": "nonpayable",
      "type": "function"
    }
  ],
  "bytecode": "0x608060405234801561001057600080fd5b50610a02806100206000396000f3fe608060405234801561001057600080fd5b50600436106100415760003560e01c80638e15f0d514610046578063b037aa1c14610064578063cf42dfe714610082575b600080fd5b61004e61009e565b60405161005b91906106b7565b60405180910390f35b61006c610203565b6040516100799190610709565b60405180910390f35b61009c600480360381019061009791906104b2565b61020c565b005b60606001805480602002602001604051908101604052809291908181526020016000905b828210156101fa57838290600052602060002090600502016040518060a00160405290816000820160009054906101000a900473ffffffffffffffffffffffffffffffffffffffff1673ffffffffffffffffffffffffffffffffffffffff1673ffffffffffffffffffffffffffffffffffffffff16815260200160018201805461014b906108b4565b80601f0160208091040260200160405190810160405280929190818152602001828054610177906108b4565b80156101c45780601f10610199576101008083540402835291602001916101c4565b820191906000526020600020905b8154815290600101906020018083116101a757829003601f168201915b505050505081526020016002820154815260200160038201548152602001600482015481525050815260200190600101906100c2565b50505050905090565b60008054905090565b6000839050600081511180156102225750600083115b801561022e5750600082115b61023757600080fd5b600160008082825461024991906107e0565b9250508190555060016040518060a001604052803373ffffffffffffffffffffffffffffffffffffffff16815260200186815260200185815260200184815260200142815250908060018154018082558091505060019003906000526020600020906005020160009091909190915060008201518160000160006101000a81548173ffffffffffffffffffffffffffffffffffffffff021916908373ffffffffffffffffffffffffffffffffffffffff160217905550602082015181600101908051906020019061031b929190610392565b5060408201518160020155606082015181600301556080820151816004015550503373ffffffffffffffffffffffffffffffffffffffff167f0d620bb81fff1079822ae41bdf1f053a418659587ad9c76fc3f7a05987639e6285426040516103849291906106d9565b60405180910390a250505050565b82805461039e906108b4565b90600052602060002090601f0160209004810192826103c05760008555610407565b82601f106103d957805160ff1916838001178555610407565b82800160010185558215610407579182015b828111156104065782518255916020019190600101906103eb565b5b5090506104149190610418565b5090565b5b80821115610431576000816000905550600101610419565b5090565b600061044861044384610749565b610724565b90508281526020810184848401111561046057600080fd5b61046b848285610872565b509392505050565b600082601f83011261048457600080fd5b8135610494848260208601610435565b91505092915050565b6000813590506104ac816109b5565b92915050565b6000806000606084860312156104c757600080fd5b600084013567ffffffffffffffff8111156104e157600080fd5b6104ed86828701610473565b93505060206104fe8682870161049d565b925050604061050f8682870161049d565b9150509250925092565b60006105258383610623565b905092915050565b61053681610836565b82525050565b60006105478261078a565b61055181856107ad565b9350836020820285016105638561077a565b8060005b8581101561059f57848403895281516105808582610519565b945061058b836107a0565b925060208a01995050600181019050610567565b50829750879550505050505092915050565b60006105bc82610795565b6105c681856107be565b93506105d6818560208601610881565b6105df816109a4565b840191505092915050565b60006105f582610795565b6105ff81856107cf565b935061060f818560208601610881565b610618816109a4565b840191505092915050565b600060a08301600083015161063b600086018261052d565b506020830151848203602086015261065382826105b1565b91505060408301516106686040860182610699565b50606083015161067b6060860182610699565b50608083015161068e6080860182610699565b508091505092915050565b6106a281610868565b82525050565b6106b181610868565b82525050565b600060208201905081810360008301526106d1818461053c565b905092915050565b600060408201905081810360008301526106f381856105ea565b905061070260208301846106a8565b9392505050565b600060208201905061071e60008301846106a8565b92915050565b600061072e61073f565b905061073a82826108e6565b919050565b6000604051905090565b600067ffffffffffffffff82111561076457610763610975565b5b61076d826109a4565b9050602081019050919050565b6000819050602082019050919050565b600081519050919050565b600081519050919050565b6000602082019050919050565b600082825260208201905092915050565b600082825260208201905092915050565b600082825260208201905092915050565b60006107eb82610868565b91506107f683610868565b9250827fffffffffffffffffffffffffffffffffffffffffffffffffffffffffffffffff0382111561082b5761082a610917565b5b828201905092915050565b600061084182610848565b9050919050565b600073ffffffffffffffffffffffffffffffffffffffff82169050919050565b6000819050919050565b82818337600083830152505050565b60005b8381101561089f578082015181840152602081019050610884565b838111156108ae576000848401525b50505050565b600060028204905060018216806108cc57607f821691505b602082108114156108e0576108df610946565b5b50919050565b6108ef826109a4565b810181811067ffffffffffffffff8211171561090e5761090d610975565b5b80604052505050565b7f4e487b7100000000000000000000000000000000000000000000000000000000600052601160045260246000fd5b7f4e487b7100000000000000000000000000000000000000000000000000000000600052602260045260246000fd5b7f4e487b7100000000000000000000000000000000000000000000000000000000600052604160045260246000fd5b6000601f19601f8301169050919050565b6109be81610868565b81146109c957600080fd5b5056fea2646970667358221220dcb5784fb74e276fe15f9b51197b031257d8e4ffcafca83abb63baad2ff3d3e564736f6c63430008040033",
  "linkReferences": {},
  "deployedLinkReferences": {}
}